:100000000C942A000C9447000C9447000C94470071
:100010000C9447000C9447000C9447000C94470044
:100020000C9447000C9447000C9447000C94470034
:100030000C9447000C9447000C9447000C94470024
:100040000C9447000C9447000C9447000C94470014
:100050000C94470011241FBECFE5D8E0DEBFCDBF12
:1000600011E0A0E6B0E0EEEBF2E302C005900D92E5
:10007000A237B107D9F711E0A2E7B1E001C01D92A4
:10008000A737B107E1F70E94FF160C945D190C9495
:100090000000EF92FF920F931F937B018C0120E0F1
:1000A00030E040E05FE40E94F50388238CF0C80153
:1000B000B70120E030E040E05FE40E94C1010E940F
:1000C00055049B01AC01205030404040504806C0D0
:1000D000C801B7010E9455049B01AC01B901CA01D6
:1000E0001F910F91FF90EF900895A0E0B0E0EBE733
:1000F000F0E00C942619DC012B01FA019C9192305E
:1001000008F439C1EB018881823008F433C194309E
:1001100069F4843009F02FC111969C91119789815F
:10012000981709F428C1A0E6B0E025C1843009F48D
:1001300021C18230A9F4923009F01DC19A01AD01AC
:1001400088E0EA010990AE01E90109929E0181501F
:10015000C1F7E201898111969C918923818308C1AD
:10016000923009F407C112962D903C901397EB0141
:100170008A819B811496AD90BD90CD90DC901797AD
:10018000EC80FD800E811F819101281B390BB90184
:1001900037FF04C066277727621B730B6032710537
:1001A0000CF061C0121613066CF537014801062EDB
:1001B00004C096948794779467940A94D2F721E0C8
:1001C00030E040E050E004C0220F331F441F551FB1
:1001D0006A95D2F721503040404050402E213F21B7
:1001E00040235123211531054105510521F021E01E
:1001F00030E040E050E079018A01E628F72808293C
:1002000019293CC0232BD1F1260E371E350146019A
:10021000062E04C096948794779467940A94D2F734
:1002200021E030E040E050E004C0220F331F441FC3
:10023000551F6A95D2F721503040404050402A2146
:100240003B214C215D21211531054105510521F04E
:1002500021E030E040E050E059016A01A628B728CB
:10026000C828D9280BC0821593052CF01C01AA249C
:10027000BB24650103C0EE24FF24870111969C91E5
:10028000D20111968C91981709F445C0992339F041
:10029000A80197012A193B094C095D0906C0A6016E
:1002A00095012E193F09400B510B57FD08C01182D3
:1002B0003382228224833583468357831DC081E0A5
:1002C00081833382228288279927DC01821B930B4A
:1002D000A40BB50B84839583A683B7830DC0220F2F
:1002E000331F441F551F24833583468357838281E0
:1002F000938101979383828324813581468157813D
:10030000DA01C9010197A109B1098F5F9F4FAF4F72
:10031000BF4328F30BC0918333822282EA0CFB1C7B
:100320000C1D1D1DE482F5820683178383E0808304
:10033000248135814681578157FF1AC0C901AA27F8
:1003400097FDA095BA2F81709070A070B0705695EF
:10035000479537952795822B932BA42BB52B848318
:100360009583A683B7838281938101969383828349
:10037000DF0101C0D201CD01CDB7DEB7E2E10C94BF
:100380004219A0E2B0E0E7ECF1E00C943219698385
:100390007A838B839C832D833E834F835887E9E048
:1003A000EE2EF12CEC0EFD1ECE010196B7010E943F
:1003B00046068E010F5E1F4FCE010596B8010E94C2
:1003C00046068A8991E089278A8BC701B801AE0168
:1003D000475E5F4F0E9475000E947105A096E6E09F
:1003E0000C944E19A0E2B0E0E8EFF1E00C94321961
:1003F00069837A838B839C832D833E834F835887C5
:10040000F9E0EF2EF12CEC0EFD1ECE010196B701A6
:100410000E9446068E010F5E1F4FCE010596B80161
:100420000E944606C701B801AE01475E5F4F0E94B9
:1004300075000E947105A096E6E00C944E19A0E2AA
:10044000B0E0E5E2F2E00C94261969837A838B83AD
:100450009C832D833E834F835887CE010196BE0136
:10046000675F7F4F0E944606CE010596BE016F5E14
:100470007F4F0E9446069985923088F089898230A4
:10048000C8F0943019F4823051F404C0843029F457
:10049000923081F480E690E0C6C0923049F420E0CA
:1004A0009A858A89981321E02A87CE010996BBC0D4
:1004B000823049F420E09A858A89981321E02A8BBA
:1004C000CE014196B0C02D843E844F8458886D88FB
:1004D0007E888F88988CEE24FF248701AA24BB2471
:1004E000650140E050E060E070E0E0E0F0E0C10174
:1004F00081709070892BE9F0E60CF71C081D191D1E
:100500009A01AB012A0D3B1D4C1D5D1D80E090E062
:10051000A0E0B0E0E614F7040805190520F481E036
:1005200090E0A0E0B0E0BA01A901480F591F6A1F8E
:100530007B1FAA0CBB1CCC1CDD1C97FE08C081E0F5
:1005400090E0A0E0B0E0A82AB92ACA2ADB2A3196B6
:10055000E032F10549F0660C771C881C991C569412
:10056000479437942794C3CFFA85EA892B893C892D
:100570008B859C85280F391F2E5F3F4F17C0CA01FE
:1005800081709070892B61F016950795F794E79428
:1005900080E090E0A0E0B0E8E82AF92A0A2B1B2BC3
:1005A00076956795579547952F5F3F4F77FDE7CF36
:1005B0000CC0440F551F661F771F17FD4160EE0CDE
:1005C000FF1C001F111F21503040403090E05907A0
:1005D00090E0690790E4790760F32B8F3C8FDB0193
:1005E000CA018F779070A070B07080349105A1051A
:1005F000B10561F447FD0AC0E114F10401051105DC
:1006000029F0405C5F4F6F4F7F4F40781A8EFE1786
:1006100011F081E08A8F4D8F5E8F6F8F78A383E01A
:10062000898FCE0149960E947105A096E2E10C9453
:100630004219A8E1B0E0EFE1F3E00C942E196983D0
:100640007A838B839C832D833E834F835887B9E0C5
:10065000EB2EF12CEC0EFD1ECE010196B7010E948F
:1006600046068E010F5E1F4FCE010596B8010E940F
:1006700046062985223008F47EC03989323010F4CC
:10068000B8017CC08A859A8989278A87243011F02D
:10069000223031F4231709F06EC060E670E06EC0BE
:1006A000343039F41D861E861F86188A1C861B86E8
:1006B00004C0323021F484E08987B7015FC02B8504
:1006C0003C858B899C89281B390B3C872B87ED84C3
:1006D000FE840F851889AD88BE88CF88D88CEA142F
:1006E000FB040C051D0540F4EE0CFF1C001F111F40
:1006F000215030403C872B8720E030E040E050E044
:1007000080E090E0A0E0B0E460E070E0EA14FB0478
:100710000C051D0540F0282B392B4A2B5B2BEA18C2
:10072000FB080C091D09B695A79597958795EE0CC2
:10073000FF1C001F111F6F5F7F4F6F31710531F775
:10074000DA01C9018F779070A070B0708034910584
:10075000A105B10561F427FD0AC0E114F10401050A
:10076000110529F0205C3F4F4F4F5F4F20782D87B8
:100770003E874F87588BBE01675F7F4FCB010E943A
:1007800071056896EAE00C944A19A8E1B0E0EBEC38
:10079000F3E00C94321969837A838B839C832D83D5
:1007A0003E834F83588789E0E82EF12CEC0EFD1E26
:1007B000CE010196B7010E9446068E010F5E1F4FC3
:1007C000CE010596B8010E9446068985823040F028
:1007D0008989823028F0C701B8010E94BE0601C095
:1007E0008FEF6896E6E00C944E19A8E1B0E0EBEFCD
:1007F000F3E00C94321969837A838B839C832D8375
:100800003E834F83588789E0E82EF12CEC0EFD1EC5
:10081000CE010196B7010E9446068E010F5E1F4F62
:10082000CE010596B8010E9446068985823040F0C7
:100830008989823028F0C701B8010E94BE0601C034
:100840008FEF6896E6E00C944E19A8E1B0E0EBE279
:10085000F4E00C94321969837A838B839C832D8313
:100860003E834F83588789E0E82EF12CEC0EFD1E65
:10087000CE010196B7010E9446068E010F5E1F4F02
:10088000CE010596B8010E9446068985823040F067
:100890008989823028F0C701B8010E94BE0601C0D4
:1008A00081E06896E6E00C944E19ACE0B0E0EBE530
:1008B000F4E00C94361969837A838B839C83CE0190
:1008C0000196BE016B5F7F4F0E9446068D8182308C
:1008D00061F1823050F1843021F48E81882351F10E
:1008E0002EC02F81388537FD20C06E812F31310514
:1008F0001CF06623F9F023C08EE190E0821B930B7D
:1009000029853A854B855C8504C056954795379572
:1009100027958A95D2F76623B1F05095409530958A
:1009200021953F4F4F4F5F4F0EC020E030E040E039
:1009300050E009C02FEF3FEF4FEF5FE704C020E02A
:1009400030E040E050E8B901CA012C96E2E00C9496
:100950005219A8E0B0E0EFEAF4E00C942E197B0104
:100960008C01611571058105910519F482E0898377
:1009700060C083E089838EE1C82ED12CDC82CB82DB
:10098000ED82FE820F831887C801B7010E942205FD
:10099000FC013197F7FF3BC0222733272E1B3F0B6B
:1009A00057016801022E04C0D694C794B794A79447
:1009B0000A94D2F740E050E060E070E081E090E01F
:1009C000A0E0B0E004C0880F991FAA1FBB1F2A95A2
:1009D000D2F70197A109B1098E219F21A023B1234C
:1009E0000097A105B10521F041E050E060E070E022
:1009F0004A295B296C297D294D835E836F83788723
:100A00008EE190E08E1B9F0B9C838B8312C03097EE
:100A100081F00E2E04C0EE0CFF1C001F111F0A9463
:100A2000D2F7ED82FE820F831887CE1ADF0ADC82AE
:100A3000CB821A82CE0101960E9471052896EAE0C7
:100A40000C944A19EF92FF920F931F937B018C0134
:100A500080E0E81680E0F80681E0080780E01807EB
:100A600088F48FEFE816F1040105110531F028F044
:100A700088E090E0A0E0B0E017C080E090E0A0E067
:100A8000B0E012C080E0E81680E0F80680E00807D9
:100A900081E0180728F088E190E0A0E0B0E004C011
:100AA00080E190E0A0E0B0E020E230E040E050E003
:100AB000281B390B4A0B5B0B04C016950795F7945E
:100AC000E7948A95D2F7F701E859FF4F8081281BF8
:100AD000310941095109C9011F910F91FF90EF9010
:100AE0000895DF92EF92FF920F931F93FC01E48031
:100AF000F58006811781D1808081823048F480E0C2
:100B000090E0A0E1B0E0E82AF92A0A2B1B2BA5C04F
:100B1000843009F49FC0823021F4EE24FF24870141
:100B200005C0E114F1040105110519F4E0E0F0E05D
:100B300096C0628173819FEF623879070CF05BC0C9
:100B400022E83FEF261B370B2A3131052CF020E03D
:100B500030E040E050E02AC0B801A701022E04C0F6
:100B600076956795579547950A94D2F781E090E07E
:100B7000A0E0B0E004C0880F991FAA1FBB1F2A95F0
:100B8000D2F70197A109B1098E219F21A023B1239A
:100B90000097A105B10521F081E090E0A0E0B0E070
:100BA0009A01AB01282B392B4A2B5B2BDA01C901A7
:100BB0008F779070A070B07080349105A105B10559
:100BC00039F427FF09C0205C3F4F4F4F5F4F04C0EF
:100BD000215C3F4F4F4F5F4FE0E0F0E02030A0E05E
:100BE0003A07A0E04A07A0E45A0710F0E1E0F0E07D
:100BF00079018A0127C06038710564F5FB01E1586D
:100C0000FF4FD801C7018F779070A070B07080340B
:100C10009105A105B10539F4E7FE0DC080E490E02F
:100C2000A0E0B0E004C08FE390E0A0E0B0E0E80E08
:100C3000F91E0A1F1B1F17FF05C016950795F7948D
:100C4000E794319687E016950795F794E7948A958F
:100C5000D1F705C0EE24FF248701EFEFF0E06E2FFF
:100C6000679566276795902F9F77D794DD24D79453
:100C70008E2F8695492F462B582F5D29B701CA0123
:100C80001F910F91FF90EF90DF900895FC01DB0121
:100C9000408151812281622F6F7770E0221F2227CD
:100CA000221F9381892F880F822B282F30E0991FD4
:100CB0009927991F11969C93119721153105A9F534
:100CC000411551056105710511F482E037C082E8D4
:100CD0009FEF13969C938E9312979A01AB0167E056
:100CE000220F331F441F551F6A95D1F783E08C9361
:100CF0000DC0220F331F441F551F12968D919C91DA
:100D00001397019713969C938E931297203080E04F
:100D1000380780E0480780E4580758F314962D936D
:100D20003D934D935C93179708952F3F310579F4C8
:100D3000411551056105710519F484E08C930895FE
:100D400064FF03C081E08C9312C01C9210C02F5727
:100D5000304013963C932E93129783E08C9387E058
:100D6000440F551F661F771F8A95D1F7706414963C
:100D70004D935D936D937C93179708951F93DC01BA
:100D8000FB019C91923008F447C08081823008F4C6
:100D900043C0943051F411961C91843099F58181AF
:100DA000682F70E0611B71093FC0843021F09230E0
:100DB00031F48230B9F18181882389F12DC01196F7
:100DC0001C9111978230F1F081811817D9F4129695
:100DD0002D913C911397828193818217930794F010
:100DE00028173907BCF014968D919D910D90BC91F8
:100DF000A02D2481358146815781281739074A075C
:100E00005B0718F4112341F00AC082179307A40767
:100E1000B50740F4112319F061E070E005C06FEFF1
:100E20007FEF02C060E070E0CB011F910895DF9377
:100E3000CF93CDB7DEB7EAE3F0E08FEF8083E7E34F
:100E4000F0E08FE58083E4E3F0E08FEF8083E1E37F
:100E5000F0E08FEF8083EBE3F0E01082E8E3F0E076
:100E60001082E5E3F0E01082E2E3F0E01082CF913F
:100E7000DF910895DF93CF93CDB7DEB727970FB6F5
:100E8000F894DEBF0FBECDBF89836A834B838B810D
:100E9000882309F075C08981282F30E03F832E8395
:100EA0008E819F818230910561F12E813F812330B7
:100EB000310534F48E819F818130910569F0D3C072
:100EC0002E813F812330310589F18E819F818430CD
:100ED000910509F440C0C7C0AAE3B0E0EAE3F0E03E
:100EE0008081482F8A81282F30E081E090E0022E17
:100EF00002C0880F991F0A94E2F7809584238C938F
:100F0000B2C0A7E3B0E0E7E3F0E08081482F8A8138
:100F1000282F30E081E090E0022E02C0880F991F58
:100F20000A94E2F7809584238C939DC0A4E3B0E0FB
:100F3000E4E3F0E08081482F8A81282F30E081E0CF
:100F400090E0022E02C0880F991F0A94E2F7809564
:100F500084238C9388C0A1E3B0E0E1E3F0E08081DA
:100F6000482F8A81282F30E081E090E0022E02C0D5
:100F7000880F991F0A94E2F7809584238C9373C09D
:100F80008B81813009F06FC08981282F30E03D834B
:100F90002C838C819D818230910551F12C813D8182
:100FA0002330310534F48C819D818130910561F0CD
:100FB0005AC02C813D812330310571F18C819D8196
:100FC00084309105E9F14FC0AAE3B0E0EAE3F0E034
:100FD0008081482F8A81282F30E081E090E0022E26
:100FE00002C0880F991F0A94E2F7842B8C933BC0B0
:100FF000A7E3B0E0E7E3F0E08081482F8A81282F63
:1010000030E081E090E0022E02C0880F991F0A9420
:10101000E2F7842B8C9327C0A4E3B0E0E4E3F0E094
:101020008081482F8A81282F30E081E090E0022ED5
:1010300002C0880F991F0A94E2F7842B8C9313C087
:10104000A1E3B0E0E1E3F0E08081482F8A81282F1E
:1010500030E081E090E0022E02C0880F991F0A94D0
:10106000E2F7842B8C9327960FB6F894DEBF0FBE61
:10107000CDBFCF91DF910895DF93CF93CDB7DEB78A
:1010800028970FB6F894DEBF0FBECDBF8A836B835F
:101090004C8319828B81883018F081E08983ECC001
:1010A0008C81882309F075C08A81282F30E0388729
:1010B0002F838F8198858230910561F12F8138854A
:1010C0002330310534F48F8198858130910569F0A2
:1010D000D3C02F8138852330310589F18F819885E0
:1010E0008430910509F440C0C7C0ABE3B0E0EBE346
:1010F000F0E08081482F8B81282F30E081E090E064
:10110000022E02C0880F991F0A94E2F7809584236B
:101110008C93B2C0A8E3B0E0E8E3F0E08081482F10
:101120008B81282F30E081E090E0022E02C0880FF2
:10113000991F0A94E2F7809584238C939DC0A5E3C0
:10114000B0E0E5E3F0E08081482F8B81282F30E08C
:1011500081E090E0022E02C0880F991F0A94E2F706
:10116000809584238C9388C0A2E3B0E0E2E3F0E0B2
:101170008081482F8B81282F30E081E090E0022E83
:1011800002C0880F991F0A94E2F7809584238C93FC
:1011900073C08C81813009F06FC08A81282F30E0C4
:1011A0003E832D838D819E818230910551F12D8169
:1011B0003E812330310534F48D819E81813091054B
:1011C00061F05AC02D813E812330310571F18D814E
:1011D0009E8184309105E9F14FC0ABE3B0E0EBE3D1
:1011E000F0E08081482F8B81282F30E081E090E073
:1011F000022E02C0880F991F0A94E2F7842B8C9369
:101200003BC0A8E3B0E0E8E3F0E08081482F8B81A9
:10121000282F30E081E090E0022E02C0880F991F55
:101220000A94E2F7842B8C9327C0A5E3B0E0E5E3B2
:10123000F0E08081482F8B81282F30E081E090E022
:10124000022E02C0880F991F0A94E2F7842B8C9318
:1012500013C0A2E3B0E0E2E3F0E08081482F8B818D
:10126000282F30E081E090E0022E02C0880F991F05
:101270000A94E2F7842B8C93898128960FB6F89410
:10128000DEBF0FBECDBFCF91DF910895DF93CF9327
:10129000CDB7DEB727970FB6F894DEBF0FBECDBF30
:1012A0008A836B835D834C8319828B81883018F02D
:1012B00081E0898370C08A81282F30E03F832E83AC
:1012C0004E815F814230510559F18E819F8183307B
:1012D000910534F42E813F812130310569F05BC0E6
:1012E0004E815F814330510579F18E819F81843039
:1012F000910509F43DC04FC0E9E3F0E08081282F5B
:1013000030E08B81882F90E0A90102C05595479568
:101310008A95E2F7CA018170EC81FD8180833BC030
:10132000E6E3F0E08081282F30E08B81882F90E089
:10133000A90102C0559547958A95E2F7CA018170C7
:10134000EC81FD81808327C0E3E3F0E08081282FDA
:1013500030E08B81882F90E0A90102C05595479518
:101360008A95E2F7CA018170EC81FD81808313C008
:10137000E0E3F0E08081282F30E08B81882F90E03F
:10138000A90102C0559547958A95E2F7CA01817077
:10139000EC81FD818083898127960FB6F894DEBFAA
:1013A0000FBECDBFCF91DF910895DF93CF9300D0D3
:1013B00000D00F92CDB7DEB78A836B8319828A8102
:1013C000883018F081E0898336C08A81282F30E088
:1013D0003D832C838C819D8182309105D9F02C81B5
:1013E0003D812330310534F48C819D81813091051C
:1013F00061F01FC02C813D812330310581F08C814B
:101400009D818430910581F014C0EBE3F0E08B8185
:10141000808311C0E8E3F0E08B8180830CC0E5E3BA
:10142000F0E08B81808307C0E2E3F0E08B81808372
:1014300002C081E0898389810F900F900F900F90F7
:101440000F90CF91DF910895DF93CF9300D000D01C
:1014500000D0CDB7DEB78A837C836B8319828A8103
:10146000883018F081E089833EC08A81282F30E0DF
:101470003E832D838D819E8182309105E9F02D81FF
:101480003E812330310534F48D819E818130910578
:1014900061F027C02D813E8123303105A1F08D817F
:1014A0009E8184309105B1F01CC0E9E3F0E08081B9
:1014B000EB81FC81808317C0E6E3F0E08081EB8163
:1014C000FC81808310C0E3E3F0E08081EB81FC814C
:1014D000808309C0E0E3F0E08081EB81FC818083C0
:1014E00002C081E08983898126960FB6F894DEBF19
:1014F0000FBECDBFCF91DF910895DF93CF9300D082
:1015000000D00F92CDB7DEB78A836B8319828B81AF
:10151000883010F081E089838A81282F30E03D8374
:101520002C838C819D818230910551F12C813D81EC
:101530002330310534F48C819D818130910561F037
:101540005BC02C813D812330310571F18C819D81FF
:1015500084309105E9F150C0ABE3B0E0EBE3F0E09B
:101560008081482F8B81282F30E081E090E0022E8F
:1015700002C0880F991F0A94E2F784278C933EC01B
:10158000A8E3B0E0E8E3F0E08081482F8B81282FCA
:1015900030E081E090E0022E02C0880F991F0A948B
:1015A000E2F784278C932AC0A5E3B0E0E5E3F0E0FE
:1015B0008081482F8B81282F30E081E090E0022E3F
:1015C00002C0880F991F0A94E2F784278C9316C0F3
:1015D000A2E3B0E0E2E3F0E08081482F8B81282F86
:1015E00030E081E090E0022E02C0880F991F0A943B
:1015F000E2F784278C9302C081E0898389810F9070
:101600000F900F900F900F90CF91DF910895DF937F
:10161000CF93CDB7DEB7AFE5B0E0EFE5F0E0808186
:1016200080688C93CF91DF910895DF93CF93CDB7EE
:10163000DEB7AFE5B0E0EFE5F0E080818F778C9327
:10164000CF91DF910895DF93CF93CDB7DEB7A3E5B8
:10165000B0E0E3E5F0E0808180648C93A3E5B0E046
:10166000E3E5F0E0808188608C93A3E5B0E0E3E5FA
:10167000F0E080818F7E8C93A3E5B0E0E3E5F0E0BD
:10168000808180628C93A3E5B0E0E3E5F0E08081A7
:101690008E7F8C93A3E5B0E0E3E5F0E0808182608B
:1016A0008C93A3E5B0E0E3E5F0E080818B7F8C9341
:1016B000CF91DF910895DF93CF93CDB7DEB7A3E548
:1016C000B0E0E3E5F0E080818E7F8C93A3E5B0E0AD
:1016D000E3E5F0E0808182608C93A3E5B0E0E3E590
:1016E000F0E080818B7F8C93CF91DF910895DF9321
:1016F000CF93CDB7DEB7A3E5B0E0E3E5F0E08081BE
:101700008E7F8C93A3E5B0E0E3E5F0E080818D7FF0
:101710008C93A3E5B0E0E3E5F0E080818B7F8C93D0
:10172000CF91DF910895DF93CF930F92CDB7DEB7BE
:101730008983E2E5F0E0898180830F90CF91DF918A
:101740000895DF93CF930F92CDB7DEB78983ECE591
:10175000F0E0898180830F90CF91DF910895DF932E
:10176000CF93CDB7DEB729970FB6F894DEBF0FBE83
:10177000CDBF89836A834B838981282F30E03987E5
:101780002887888599858230910509F45CC0288571
:1017900039852330310554F4888599850097C9F03F
:1017A000288539852130310589F1C0C08885998522
:1017B0008430910509F481C02885398524303105AC
:1017C0000CF45EC0888599858530910509F492C036
:1017D000ADC0AFE4B0E0EFE4F0E080818F7B8C93AC
:1017E000AFE4B0E0EFE4F0E080818F7E8C93AFE473
:1017F000B0E0EFE4F0E080818F778C93AFE4B0E06D
:10180000EFE4F0E080818F7D8C9390C0AFE4B0E096
:10181000EFE4F0E080818F7B8C93AFE4B0E0EFE405
:10182000F0E0808180618C93AFE4B0E0EFE4F0E021
:1018300080818F778C93AFE4B0E0EFE4F0E08081BB
:101840008F7D8C9373C0AFE4B0E0EFE4F0E0808173
:1018500080648C93AFE4B0E0EFE4F0E080818061DD
:101860008C93AFE4B0E0EFE4F0E0808180688C938B
:10187000AFE4B0E0EFE4F0E0808180628C9356C08A
:10188000AFE4B0E0EFE4F0E080818F7B8C93AFE4D5
:10189000B0E0EFE4F0E080818F7E8C93AFE4B0E0C5
:1018A000EFE4F0E0808180688C93AFE4B0E0EFE497
:1018B000F0E0808180628C9339C0AFE4B0E0EFE467
:1018C000F0E080818F7B8C93AFE4B0E0EFE4F0E058
:1018D00080818F7E8C93AFE4B0E0EFE4F0E0808114
:1018E00080688C93AFE4B0E0EFE4F0E08081806248
:1018F0008C931CC0AFE4B0E0EFE4F0E08081806442
:101900008C93AFE4B0E0EFE4F0E0808180618C93F1
:10191000AFE4B0E0EFE4F0E0808180688C93AFE466
:10192000B0E0EFE4F0E0808180628C938A81282F20
:1019300030E03F832E838E819F8181309105B9F005
:101940002E813F81223031052CF48E819F810097BA
:1019500059F180C02E813F812230310509F441C008
:101960008E819F818330910509F458C073C0AFE424
:10197000B0E0EFE4F0E080818E7F8C93AFE4B0E0E4
:10198000EFE4F0E080818D7F8C93AEE4B0E0EEE494
:10199000F0E0808188608C93AEE4B0E0EEE4F0E0AB
:1019A000808180618C9356C0AFE4B0E0EFE4F0E05A
:1019B00080818E7F8C93AFE4B0E0EFE4F0E0808133
:1019C0008D7F8C93AEE4B0E0EEE4F0E0808188603F
:1019D0008C93AEE4B0E0EEE4F0E080818F7E8C93F7
:1019E00039C0AFE4B0E0EFE4F0E080818E7F8C930B
:1019F000AFE4B0E0EFE4F0E0808182608C93AEE48D
:101A0000B0E0EEE4F0E0808188608C93AEE4B0E07A
:101A1000EEE4F0E0808180618C931CC0AFE4B0E024
:101A2000EFE4F0E0808181608C93AFE4B0E0EFE41C
:101A3000F0E0808182608C93AEE4B0E0EEE4F0E010
:101A4000808188608C93AEE4B0E0EEE4F0E08081C9
:101A500080618C938B81282F30E03D832C838C8197
:101A60009D818130910501F12C813D81223031052C
:101A700089F18C819D81009709F041C0AEE4B0E00E
:101A8000EEE4F0E080818E7F8C93AEE4B0E0EEE493
:101A9000F0E0808182608C93AEE4B0E0EEE4F0E0B0
:101AA00080818B7F8C932BC0AEE4B0E0EEE4F0E05D
:101AB000808181608C93AEE4B0E0EEE4F0E0808160
:101AC00082608C93AEE4B0E0EEE4F0E080818B7F46
:101AD0008C9315C0AEE4B0E0EEE4F0E080818E7F40
:101AE0008C93AEE4B0E0EEE4F0E080818D7F8C93E7
:101AF000AEE4B0E0EEE4F0E0808184608C9329965F
:101B00000FB6F894DEBF0FBECDBFCF91DF91089521
:101B1000DF93CF9300D000D00F92CDB7DEB79A837A
:101B200089836B838B81282F30E03D832C838C81CC
:101B30009D818230910531F02C813D81233031052A
:101B400041F00DC0E6E4F0E089819A8191838083C1
:101B500006C0EAE4F0E089819A81918380830F9046
:101B60000F900F900F900F90CF91DF910895DF931A
:101B7000CF9300D0CDB7DEB79A838983EAE4F0E053
:101B800089819A81918380830F900F90CF91DF910B
:101B90000895DF93CF93CDB7DEB7ADE2B0E0EDE2CD
:101BA000F0E0808180618C93ADE2B0E0EDE2F0E0A6
:101BB000808181608C93ADE2B0E0EDE2F0E0808165
:101BC0008D7F8C93AEE2B0E0EEE2F0E080818E7F1C
:101BD0008C93ADE2B0E0EDE2F0E0808180648C9324
:101BE000CF91DF910895DF93CF93CDB7DEB7ADE20C
:101BF000B0E0EDE2F0E080818F7E8C93ADE2B0E06A
:101C0000EDE2F0E0808180648C93CF91DF910895C4
:101C1000DF93CF9300D0CDB7DEB78983EFE2F0E05A
:101C200089818083EEE2F0E08081EFE2F0E0808164
:101C30000F900F90CF91DF910895DF93CF93CDB7A1
:101C4000DEB70E94E416CF91DF910895DF93CF9322
:101C5000CDB7DEB7EE970FB6F894DEBF0FBECDBF9F
:101C60009EAF8DAF8DAD9EADCC01A0E0B0E0BC01CC
:101C7000CD010E94A904DC01CB01BC01CD0120E013
:101C800030E044E35EE30E941903DC01CB01BC01B8
:101C9000CD0120E030E040E850E40E941903DC016F
:101CA000CB01BC01CD0120E030E040E85FE30E94C1
:101CB000F201DC01CB01BC01CD010E944900DC0135
:101CC000CB019AAF89AF0E94E4161CAE1BAEF5C1E2
:101CD00084E060E041E00E943C0880E090E0A0EAFF
:101CE000B1E48DAB9EABAFABB8AF6DA97EA98FA9A8
:101CF00098AD20E030E04AEF54E40E941F02DC017E
:101D0000CB0189AB9AABABABBCAB69A97AA98BA968
:101D10009CA920E030E040E85FE30E94250488238E
:101D20002CF481E090E098AB8FA73FC069A97AA915
:101D30008BA99CA920E03FEF4FE757E40E94C50321
:101D400018164CF56DA97EA98FA998AD20E030E05A
:101D500040E251E40E941F02DC01CB01BC01CD0135
:101D60000E944900DC01CB0198AB8FA70FC088EC23
:101D700090E09EA78DA78DA59EA50197F1F79EA740
:101D80008DA78FA598A9019798AB8FA78FA598A924
:101D9000009769F714C069A97AA98BA99CA90E9428
:101DA0004900DC01CB0198AB8FA78FA598A99CA710
:101DB0008BA78BA59CA50197F1F79CA78BA784E027
:101DC00060E040E00E943C0884E061E041E00E9465
:101DD0003C0880E090E0A0EAB1E48FA398A7A9A70F
:101DE000BAA76FA178A589A59AA520E030E04AEFAF
:101DF00054E40E941F02DC01CB018BA39CA3ADA382
:101E0000BEA36BA17CA18DA19EA120E030E040E8A3
:101E10005FE30E94250488232CF481E090E09AA3DC
:101E200089A33FC06BA17CA18DA19EA120E03FEFC3
:101E30004FE757E40E94C50318164CF56FA178A52B
:101E400089A59AA520E030E040E251E40E941F02FB
:101E5000DC01CB01BC01CD010E944900DC01CB01BA
:101E60009AA389A30FC088EC90E098A38F8F8F8DE1
:101E700098A10197F1F798A38F8F89A19AA1019753
:101E80009AA389A389A19AA1009769F714C06BA1AD
:101E90007CA18DA19EA10E944900DC01CB019AA3E7
:101EA00089A389A19AA19E8F8D8F8D8D9E8D01977B
:101EB000F1F79E8F8D8F84E061E040E00E943C0846
:101EC00084E066E041E00E943C0880E090E0A0EA07
:101ED000B1E4898F9A8FAB8FBC8F698D7A8D8B8D92
:101EE0009C8D20E030E04AEF54E40E941F02DC01A8
:101EF000CB018D8B9E8BAF8BB88F6D897E898F893F
:101F0000988D20E030E040E85FE30E9425048823BC
:101F10002CF481E090E09C8B8B8B3FC06D897E8997
:101F20008F89988D20E03FEF4FE757E40E94C5036B
:101F300018164CF5698D7A8D8B8D9C8D20E030E0E4
:101F400040E251E40E941F02DC01CB01BC01CD0143
:101F50000E944900DC01CB019C8B8B8B0FC088EC6D
:101F600090E09A8B898B89899A890197F1F79A8BEE
:101F7000898B8B899C8901979C8B8B8B8B899C8906
:101F8000009769F714C06D897E898F89988D0E94AA
:101F90004900DC01CB019C8B8B8B8B899C89988BB6
:101FA0008F878F8598890197F1F7988B8F8784E0C9
:101FB00066E040E00E943C0884E067E041E00E9467
:101FC0003C0880E090E0A0EAB1E48B879C87AD8775
:101FD000BE876B857C858D859E8520E030E04AEF4D
:101FE00054E40E941F02DC01CB018F839887A987EC
:101FF000BA876F81788589859A8520E030E040E84E
:102000005FE30E94250488232CF481E090E09E8306
:102010008D833FC06F81788589859A8520E03FEF69
:102020004FE757E40E94C50318164CF56B857C8575
:102030008D859E8520E030E040E251E40E941F0241
:10204000DC01CB01BC01CD010E944900DC01CB01C8
:102050009E838D830FC088EC90E09C838B838B8163
:102060009C810197F1F79C838B838D819E810197E1
:102070009E838D838D819E81009769F714C06F8147
:10208000788589859A850E944900DC01CB019E8371
:102090008D838D819E819A83898389819A8101971D
:1020A000F1F79A83898384E067E040E00E943C086E
:1020B0008BAD9CAD01969CAF8BAF2BAD3CAD89AD8C
:1020C0009AAD2817390708F403CEEE960FB6F894A8
:1020D000DEBF0FBECDBFCF91DF910895DF93CF93C9
:1020E000CDB7DEB7EE970FB6F894DEBF0FBECDBF0B
:1020F0009EAF8DAF8DAD9EADCC01A0E0B0E0BC0138
:10210000CD010E94A904DC01CB01BC01CD0120E07E
:1021100030E044E35EE30E941903DC01CB01BC0123
:10212000CD0120E030E040E850E40E941903DC01DA
:10213000CB01BC01CD0120E030E040E85FE30E942C
:10214000F201DC01CB01BC01CD010E944900DC01A0
:10215000CB019AAF89AF0E94E4161CAE1BAEF5C14D
:1021600084E067E041E00E943C0880E090E0A0EA63
:10217000B1E48DAB9EABAFABB8AF6DA97EA98FA913
:1021800098AD20E030E04AEF54E40E941F02DC01E9
:10219000CB0189AB9AABABABBCAB69A97AA98BA9D4
:1021A0009CA920E030E040E85FE30E9425048823FA
:1021B0002CF481E090E098AB8FA73FC069A97AA981
:1021C0008BA99CA920E03FEF4FE757E40E94C5038D
:1021D00018164CF56DA97EA98FA998AD20E030E0C6
:1021E00040E251E40E941F02DC01CB01BC01CD01A1
:1021F0000E944900DC01CB0198AB8FA70FC088EC8F
:1022000090E09EA78DA78DA59EA50197F1F79EA7AB
:102210008DA78FA598A9019798AB8FA78FA598A98F
:10222000009769F714C069A97AA98BA99CA90E9493
:102230004900DC01CB0198AB8FA78FA598A99CA77B
:102240008BA78BA59CA50197F1F79CA78BA784E092
:1022500067E040E00E943C0884E066E041E00E94C4
:102260003C0880E090E0A0EAB1E48FA398A7A9A77A
:10227000BAA76FA178A589A59AA520E030E04AEF1A
:1022800054E40E941F02DC01CB018BA39CA3ADA3ED
:10229000BEA36BA17CA18DA19EA120E030E040E80F
:1022A0005FE30E94250488232CF481E090E09AA348
:1022B00089A33FC06BA17CA18DA19EA120E03FEF2F
:1022C0004FE757E40E94C50318164CF56FA178A597
:1022D00089A59AA520E030E040E251E40E941F0267
:1022E000DC01CB01BC01CD010E944900DC01CB0126
:1022F0009AA389A30FC088EC90E098A38F8F8F8D4D
:1023000098A10197F1F798A38F8F89A19AA10197BE
:102310009AA389A389A19AA1009769F714C06BA118
:102320007CA18DA19EA10E944900DC01CB019AA352
:1023300089A389A19AA19E8F8D8F8D8D9E8D0197E6
:10234000F1F79E8F8D8F84E066E040E00E943C08AC
:1023500084E061E041E00E943C0880E090E0A0EA77
:10236000B1E4898F9A8FAB8FBC8F698D7A8D8B8DFD
:102370009C8D20E030E04AEF54E40E941F02DC0113
:10238000CB018D8B9E8BAF8BB88F6D897E898F89AA
:10239000988D20E030E040E85FE30E942504882328
:1023A0002CF481E090E09C8B8B8B3FC06D897E8903
:1023B0008F89988D20E03FEF4FE757E40E94C503D7
:1023C00018164CF5698D7A8D8B8D9C8D20E030E050
:1023D00040E251E40E941F02DC01CB01BC01CD01AF
:1023E0000E944900DC01CB019C8B8B8B0FC088ECD9
:1023F00090E09A8B898B89899A890197F1F79A8B5A
:10240000898B8B899C8901979C8B8B8B8B899C8971
:10241000009769F714C06D897E898F89988D0E9415
:102420004900DC01CB019C8B8B8B8B899C89988B21
:102430008F878F8598890197F1F7988B8F8784E034
:1024400061E040E00E943C0884E060E041E00E94DE
:102450003C0880E090E0A0EAB1E48B879C87AD87E0
:10246000BE876B857C858D859E8520E030E04AEFB8
:1024700054E40E941F02DC01CB018F839887A98757
:10248000BA876F81788589859A8520E030E040E8B9
:102490005FE30E94250488232CF481E090E09E8372
:1024A0008D833FC06F81788589859A8520E03FEFD5
:1024B0004FE757E40E94C50318164CF56B857C85E1
:1024C0008D859E8520E030E040E251E40E941F02AD
:1024D000DC01CB01BC01CD010E944900DC01CB0134
:1024E0009E838D830FC088EC90E09C838B838B81CF
:1024F0009C810197F1F79C838B838D819E8101974D
:102500009E838D838D819E81009769F714C06F81B2
:10251000788589859A850E944900DC01CB019E83DC
:102520008D838D819E819A83898389819A81019788
:10253000F1F79A83898384E060E040E00E943C08E0
:102540008BAD9CAD01969CAF8BAF2BAD3CAD89ADF7
:102550009AAD2817390708F403CEEE960FB6F89413
:10256000DEBF0FBECDBFCF91DF910895DF93CF9334
:10257000CDB7DEB7EC970FB6F894DEBF0FBECDBF78
:102580009CAF8BAF0E94E4161AAE19AEF5C184E081
:1025900060E041E00E943C0880E090E0A0EAB1E405
:1025A0008DAB9EABAFABB8AF6DA97EA98FA998AD2F
:1025B00020E030E04AEF54E40E941F02DC01CB012E
:1025C00089AB9AABABABBCAB69A97AA98BA99CA927
:1025D00020E030E040E85FE30E94250488232CF4EB
:1025E00081E090E098AB8FA73FC069A97AA98BA939
:1025F0009CA920E03FEF4FE757E40E94C50318165F
:102600004CF56DA97EA98FA998AD20E030E040E29D
:1026100051E40E941F02DC01CB01BC01CD010E94EC
:102620004900DC01CB0198AB8FA70FC088EC90E08C
:102630009EA78DA78DA59EA50197F1F79EA78DA7B3
:102640008FA598A9019798AB8FA78FA598A90097F8
:1026500069F714C069A97AA98BA99CA90E944900AD
:10266000DC01CB0198AB8FA78FA598A99CA78BA75E
:102670008BA59CA50197F1F79CA78BA784E060E050
:1026800040E00E943C0884E061E041E00E943C0898
:1026900080E090E0A0EAB1E48FA398A7A9A7BAA729
:1026A0006FA178A589A59AA520E030E04AEF54E40F
:1026B0000E941F02DC01CB018BA39CA3ADA3BEA390
:1026C0006BA17CA18DA19EA120E030E040E85FE3FA
:1026D0000E94250488232CF481E090E09AA389A32A
:1026E0003FC06BA17CA18DA19EA120E03FEF4FE7F1
:1026F00057E40E94C50318164CF56FA178A589A56B
:102700009AA520E030E040E251E40E941F02DC0183
:10271000CB01BC01CD010E944900DC01CB019AA391
:1027200089A30FC088EC90E098A38F8F8F8D98A11C
:102730000197F1F798A38F8F89A19AA101979AA386
:1027400089A389A19AA1009769F714C06BA17CA104
:102750008DA19EA10E944900DC01CB019AA389A30F
:1027600089A19AA19E8F8D8F8D8D9E8D0197F1F7F6
:102770009E8F8D8F84E061E040E00E943C0884E001
:1027800066E041E00E943C0880E090E0A0EAB1E40D
:10279000898F9A8FAB8FBC8F698D7A8D8B8D9C8D35
:1027A00020E030E04AEF54E40E941F02DC01CB013C
:1027B0008D8B9E8BAF8BB88F6D897E898F89988D1D
:1027C00020E030E040E85FE30E94250488232CF4F9
:1027D00081E090E09C8B8B8B3FC06D897E898F89D7
:1027E000988D20E03FEF4FE757E40E94C50318168D
:1027F0004CF5698D7A8D8B8D9C8D20E030E040E228
:1028000051E40E941F02DC01CB01BC01CD010E94FA
:102810004900DC01CB019C8B8B8B0FC088EC90E0D6
:102820009A8B898B89899A890197F1F79A8B898B81
:102830008B899C8901979C8B8B8B8B899C890097BA
:1028400069F714C06D897E898F89988D0E9449002F
:10285000DC01CB019C8B8B8B8B899C89988B8F8720
:102860008F8598890197F1F7988B8F8784E066E0D0
:1028700040E00E943C0884E067E041E00E943C08A0
:1028800080E090E0A0EAB1E48B879C87AD87BE87AB
:102890006B857C858D859E8520E030E04AEF54E491
:1028A0000E941F02DC01CB018F839887A987BA871A
:1028B0006F81788589859A8520E030E040E85FE384
:1028C0000E94250488232CF481E090E09E838D8370
:1028D0003FC06F81788589859A8520E03FEF4FE77B
:1028E00057E40E94C50318164CF56B857C858D85D1
:1028F0009E8520E030E040E251E40E941F02DC01AE
:10290000CB01BC01CD010E944900DC01CB019E83BB
:102910008D830FC088EC90E09C838B838B819C819E
:102920000197F1F79C838B838D819E8101979E8314
:102930008D838D819E81009769F714C06F817885A2
:1029400089859A850E944900DC01CB019E838D8395
:102950008D819E819A83898389819A810197F1F77C
:102960009A83898384E067E040E00E943C0889AD57
:102970009AAD01969AAF89AF29AD3AAD8BAD9CADBA
:102980008217930708F003CEEC960FB6F894DEBFDB
:102990000FBECDBFCF91DF910895DF93CF93CDB719
:1029A000DEB7EC970FB6F894DEBF0FBECDBF9CAF7D
:1029B0008BAF0E94E4161AAE19AEF5C184E067E051
:1029C00041E00E943C0880E090E0A0EAB1E48DABD9
:1029D0009EABAFABB8AF6DA97EA98FA998AD20E033
:1029E00030E04AEF54E40E941F02DC01CB0189ABC6
:1029F0009AABABABBCAB69A97AA98BA99CA920E027
:102A000030E040E85FE30E94250488232CF481E055
:102A100090E098AB8FA73FC069A97AA98BA99CA920
:102A200020E03FEF4FE757E40E94C50318164CF52E
:102A30006DA97EA98FA998AD20E030E040E251E475
:102A40000E941F02DC01CB01BC01CD010E944900A4
:102A5000DC01CB0198AB8FA70FC088EC90E09EA75C
:102A60008DA78DA59EA50197F1F79EA78DA78FA590
:102A700098A9019798AB8FA78FA598A9009769F798
:102A800014C069A97AA98BA99CA90E944900DC01FC
:102A9000CB0198AB8FA78FA598A99CA78BA78BA5D7
:102AA0009CA50197F1F79CA78BA784E067E040E025
:102AB0000E943C0884E066E041E00E943C0880E01F
:102AC00090E0A0EAB1E48FA398A7A9A7BAA76FA145
:102AD00078A589A59AA520E030E04AEF54E40E9449
:102AE0001F02DC01CB018BA39CA3ADA3BEA36BA1F2
:102AF0007CA18DA19EA120E030E040E85FE30E9430
:102B0000250488232CF481E090E09AA389A33FC098
:102B10006BA17CA18DA19EA120E03FEF4FE757E480
:102B20000E94C50318164CF56FA178A589A59AA532
:102B300020E030E040E251E40E941F02DC01CB01C2
:102B4000BC01CD010E944900DC01CB019AA389A3FD
:102B50000FC088EC90E098A38F8F8F8D98A101977C
:102B6000F1F798A38F8F89A19AA101979AA389A3BE
:102B700089A19AA1009769F714C06BA17CA18DA1CE
:102B80009EA10E944900DC01CB019AA389A389A1DF
:102B90009AA19E8F8D8F8D8D9E8D0197F1F79E8FBF
:102BA0008D8F84E066E040E00E943C0884E061E0B4
:102BB00041E00E943C0880E090E0A0EAB1E4898F07
:102BC0009A8FAB8FBC8F698D7A8D8B8D9C8D20E019
:102BD00030E04AEF54E40E941F02DC01CB018D8BF0
:102BE0009E8BAF8BB88F6D897E898F89988D20E001
:102BF00030E040E85FE30E94250488232CF481E064
:102C000090E09C8B8B8B3FC06D897E898F89988DDE
:102C100020E03FEF4FE757E40E94C50318164CF53C
:102C2000698D7A8D8B8D9C8D20E030E040E251E4FF
:102C30000E941F02DC01CB01BC01CD010E944900B2
:102C4000DC01CB019C8B8B8B0FC088EC90E09A8BC6
:102C5000898B89899A890197F1F79A8B898B8B895E
:102C60009C8901979C8B8B8B8B899C89009769F73A
:102C700014C06D897E898F89988D0E944900DC017E
:102C8000CB019C8B8B8B8B899C89988B8F878F85B5
:102C900098890197F1F7988B8F8784E061E040E095
:102CA0000E943C0884E060E041E00E943C0880E033
:102CB00090E0A0EAB1E48B879C87AD87BE876B85E7
:102CC0007C858D859E8520E030E04AEF54E40E94AB
:102CD0001F02DC01CB018F839887A987BA876F8198
:102CE000788589859A8520E030E040E85FE30E949E
:102CF000250488232CF481E090E09E838D833FC0DF
:102D00006F81788589859A8520E03FEF4FE757E40A
:102D10000E94C50318164CF56B857C858D859E85B4
:102D200020E030E040E251E40E941F02DC01CB01D0
:102D3000BC01CD010E944900DC01CB019E838D8343
:102D40000FC088EC90E09C838B838B819C810197E2
:102D5000F1F79C838B838D819E8101979E838D8368
:102D60008D819E81009769F714C06F817885898570
:102D70009A850E944900DC01CB019E838D838D8161
:102D80009E819A83898389819A810197F1F79A8339
:102D9000898384E060E040E00E943C0889AD9AAD00
:102DA00001969AAF89AF29AD3AAD8BAD9CAD28178E
:102DB000390708F403CEEC960FB6F894DEBF0FBEC9
:102DC000CDBFCF91DF910895DF93CF93CDB7DEB71D
:102DD00084E060E040E00E943C0884E061E040E084
:102DE0000E943C0884E066E040E00E943C0884E0E9
:102DF00067E040E00E943C08CF91DF910895DF93A7
:102E0000CF93CDB7DEB7A3970FB6F894DEBF0FBE52
:102E1000CDBF0E9417070E941D0E0E94F30D84E093
:102E200062E040E00E94AF0B80E29EE462E00E941C
:102E3000880D80E50E94080E89A389A1823308F4D9
:102E40007AC089A1982F909581E0692F0E94D509B9
:102E500080E090E0A0EEB0E4898F9A8FAB8FBC8FBA
:102E6000698D7A8D8B8D9C8D20E030E04AEF54E4A3
:102E70000E941F02DC01CB018D8B9E8BAF8BB88F24
:102E80006D897E898F89988D20E030E040E85FE38E
:102E90000E94250488232CF481E090E09C8B8B8B8E
:102EA0003FC06D897E898F89988D20E03FEF4FE785
:102EB00057E40E94C50318164CF5698D7A8D8B8DE9
:102EC0009C8D20E030E040E251E40E941F02DC01D2
:102ED000CB01BC01CD010E944900DC01CB019C8BE0
:102EE0008B8B0FC088EC90E09A8B898B89899A89AB
:102EF0000197F1F79A8B898B8B899C8901979C8B21
:102F00008B8B8B899C89009769F7D8C06D897E89E6
:102F10008F89988D0E944900DC01CB019C8B8B8BA3
:102F20008B899C89988B8F878F8598890197F1F77A
:102F3000988B8F87C3C089A1823308F0BFC080E01F
:102F400090E0A0EAB0E48B879C87AD87BE876B8555
:102F50007C858D859E8520E030E04AEF54E40E9418
:102F60001F02DC01CB018F839887A987BA876F8105
:102F7000788589859A8520E030E040E85FE30E940B
:102F8000250488232CF481E090E09E838D833FC04C
:102F90006F81788589859A8520E03FEF4FE757E478
:102FA0000E94C50318164CF56B857C858D859E8522
:102FB00020E030E040E251E40E941F02DC01CB013E
:102FC000BC01CD010E944900DC01CB019E838D83B1
:102FD0000FC088EC90E09C838B838B819C81019750
:102FE000F1F79C838B838D819E8101979E838D83D6
:102FF0008D819E81009769F714C06F8178858985DE
:103000009A850E944900DC01CB019E838D838D81CE
:103010009E819A83898389819A810197F1F79A83A6
:10302000898384E062E041E00E943C0889A19AE043
:10303000692F0E941A19892F882F90E098A38F8FEB
:1030400089A19AE0692F0E941A19882F90E09E8F1B
:103050008D8F80917601882389F484E062E041E0DD
:103060000E943C0884E063E040E00E943C088F8DB1
:103070000E94CC1881E0809376010FC084E062E06A
:1030800040E00E943C0884E063E041E00E943C088C
:103090008D8D0E94CC181092760189A1843248F05F
:1030A00089A1883230F482E060E041E00E943C086F
:1030B00005C082E060E040E00E943C0889A1282F22
:1030C00030E03BA32AA38AA19BA184339105D1F1CF
:1030D0002AA13BA12533310584F48AA19BA1823327
:1030E000910529F12AA13BA1233331052CF58AA1B1
:1030F0009BA181339105B1F09CCE2AA13BA126333F
:10310000310559F18AA19BA1863391050CF12AA1C1
:103110003BA12733310531F18AA19BA18833910569
:1031200031F187CE84EC99E00E94BC1882CE82EC0B
:1031300091E00E94BC187DCE82E060E041E00E94F8
:103140003C0877CE82E060E040E00E943C0871CE0F
:103150008EE091E00E94260E6CCE8EE091E00E94FF
:103160006E1067CE81E061E00E94D50962CE81E0F9
:1031700060E00E94D5095DCEDF93CF9300D0CDB73C
:10318000DEB79A83898389819A810E94B70D0F9057
:103190000F90CF91DF910895DF93CF93CDB7DEB736
:1031A00060970FB6F894DEBF0FBECDBF8B87CE0100
:1031B00001969D878C87E8E6F1E0FF87EE87FAE0CD
:1031C000F88BEE85FF8500808E859F8501969F8711
:1031D0008E87EC85FD8500828C859D8501969D8777
:1031E0008C8798899150988BE889EE2351F78B85CD
:1031F000282F30E0CE010196FC01E20FF31F9081F1
:1032000083E0692F0E94D5098B85282F30E0CE01FD
:103210000196FC01E20FF31F908183E0692F0E9469
:10322000D50960960FB6F894DEBF0FBECDBFCF9123
:10323000DF910895991B79E004C0991F961708F053
:10324000961B881F7A95C9F7809508952F923F9213
:103250004F925F926F927F928F929F92AF92BF92A6
:10326000CF92DF92EF92FF920F931F93CF93DF9352
:10327000CDB7DEB7CA1BDB0B0FB6F894DEBF0FBEAF
:10328000CDBF09942A88398848885F846E847D84FC
:103290008C849B84AA84B984C884DF80EE80FD80FE
:1032A0000C811B81AA81B981CE0FD11D0FB6F89474
:0E32B000DEBF0FBECDBFED010895F894FFCF35
:1032BE0000000000000000000001020203030303EF
:1032CE0004040404040404040505050505050505A8
:1032DE000505050505050505060606060606060688
:1032EE000606060606060606060606060606060670
:1032FE000606060606060606070707070707070758
:10330E00070707070707070707070707070707073F
:10331E00070707070707070707070707070707072F
:10332E00070707070707070707070707070707071F
:10333E000707070707070707080808080808080807
:10334E0008080808080808080808080808080808EF
:10335E0008080808080808080808080808080808DF
:10336E0008080808080808080808080808080808CF
:10337E0008080808080808080808080808080808BF
:10338E0008080808080808080808080808080808AF
:10339E00080808080808080808080808080808089F
:1033AE00080808080808080808080808080808088F
:1033BE000808080808080808C0F9A4B0999282F80D
:0233CE008090ED
:00000001FF
