:100000000C942A000C943F000C943F000C943F0089
:100010000C943F000C943F000C943F000C943F0064
:100020000C943F000C943F000C943F000C943F0054
:100030000C943F000C943F000C943F000C943F0044
:100040000C943F000C943F000C943F000C943F0034
:100050000C943F0011241FBECFE5D8E0DEBFCDBF1A
:1000600010E0A0E6B0E0ECECFBE202C005900D92DF
:10007000A837B107D9F70E9454150C94E4150C94D5
:100080000000EF92FF920F931F937B018C0120E001
:1000900030E040E05FE40E94410388238CF0C80117
:1000A000B70120E030E040E05FE40E94B9010E9427
:1000B000A1039B01AC01205030404040504806C095
:1000C000C801B7010E94A1039B01AC01B901CA019B
:1000D0001F910F91FF90EF900895A0E0B0E0E3E74B
:1000E000F0E00C94AD15DC012B01FA019C919230EB
:1000F00008F439C1EB018881823008F433C19430AF
:1001000069F4843009F02FC111969C91119789816F
:10011000981709F428C1A0E6B0E025C1843009F49D
:1001200021C18230A9F4923009F01DC19A01AD01BC
:1001300088E0EA010990AE01E90109929E0181502F
:10014000C1F7E201898111969C918923818308C1BD
:10015000923009F407C112962D903C901397EB0151
:100160008A819B811496AD90BD90CD90DC901797BD
:10017000EC80FD800E811F819101281B390BB90194
:1001800037FF04C066277727621B730B6032710547
:100190000CF061C0121613066CF537014801062EEB
:1001A00004C096948794779467940A94D2F721E0D8
:1001B00030E040E050E004C0220F331F441F551FC1
:1001C0006A95D2F721503040404050402E213F21C7
:1001D00040235123211531054105510521F021E02E
:1001E00030E040E050E079018A01E628F72808294C
:1001F00019293CC0232BD1F1260E371E35014601AB
:10020000062E04C096948794779467940A94D2F744
:1002100021E030E040E050E004C0220F331F441FD3
:10022000551F6A95D2F721503040404050402A2156
:100230003B214C215D21211531054105510521F05E
:1002400021E030E040E050E059016A01A628B728DB
:10025000C828D9280BC0821593052CF01C01AA24AC
:10026000BB24650103C0EE24FF24870111969C91F5
:10027000D20111968C91981709F445C0992339F051
:10028000A80197012A193B094C095D0906C0A6017E
:1002900095012E193F09400B510B57FD08C01182E3
:1002A0003382228224833583468357831DC081E0B5
:1002B00081833382228288279927DC01821B930B5A
:1002C000A40BB50B84839583A683B7830DC0220F3F
:1002D000331F441F551F24833583468357838281F0
:1002E000938101979383828324813581468157814D
:1002F000DA01C9010197A109B1098F5F9F4FAF4F83
:10030000BF4328F30BC0918333822282EA0CFB1C8B
:100310000C1D1D1DE482F5820683178383E0808314
:10032000248135814681578157FF1AC0C901AA2708
:1003300097FDA095BA2F81709070A070B0705695FF
:10034000479537952795822B932BA42BB52B848328
:100350009583A683B7838281938101969383828359
:10036000DF0101C0D201CD01CDB7DEB7E2E10C94CF
:10037000C915A0E2B0E0EFEBF1E00C94B915698388
:100380007A838B839C832D833E834F835887E9E058
:10039000EE2EF12CEC0EFD1ECE010196B7010E944F
:1003A000CA048E010F5E1F4FCE010596B8010E9450
:1003B000CA048A8991E089278A8BC701B801AE01F6
:1003C000475E5F4F0E946D000E94F503A096E6E035
:1003D0000C94D515A0E2B0E0E0EFF1E00C94B91573
:1003E00069837A838B839C832D833E834F835887D5
:1003F000F9E0EF2EF12CEC0EFD1ECE010196B701B7
:100400000E94CA048E010F5E1F4FCE010596B801EF
:100410000E94CA04C701B801AE01475E5F4F0E9447
:100420006D000E94F503A096E6E00C94D515A0E2BD
:10043000B0E0EDE1F2E00C94AD1569837A838B8333
:100440009C832D833E834F835887CE010196BE0146
:10045000675F7F4F0E94CA04CE010596BE016F5EA2
:100460007F4F0E94CA049985923088F08989823032
:10047000C8F0943019F4823051F404C0843029F467
:10048000923081F480E690E0C6C0923049F420E0DA
:100490009A858A89981321E02A87CE010996BBC0E4
:1004A000823049F420E09A858A89981321E02A8BCA
:1004B000CE014196B0C02D843E844F8458886D880B
:1004C0007E888F88988CEE24FF248701AA24BB2481
:1004D000650140E050E060E070E0E0E0F0E0C10184
:1004E00081709070892BE9F0E60CF71C081D191D2E
:1004F0009A01AB012A0D3B1D4C1D5D1D80E090E073
:10050000A0E0B0E0E614F7040805190520F481E046
:1005100090E0A0E0B0E0BA01A901480F591F6A1F9E
:100520007B1FAA0CBB1CCC1CDD1C97FE08C081E005
:1005300090E0A0E0B0E0A82AB92ACA2ADB2A3196C6
:10054000E032F10549F0660C771C881C991C569422
:10055000479437942794C3CFFA85EA892B893C893D
:100560008B859C85280F391F2E5F3F4F17C0CA010E
:1005700081709070892B61F016950795F794E79438
:1005800080E090E0A0E0B0E8E82AF92A0A2B1B2BD3
:1005900076956795579547952F5F3F4F77FDE7CF46
:1005A0000CC0440F551F661F771F17FD4160EE0CEE
:1005B000FF1C001F111F21503040403090E05907B0
:1005C00090E0690790E4790760F32B8F3C8FDB01A3
:1005D000CA018F779070A070B07080349105A1052A
:1005E000B10561F447FD0AC0E114F10401051105EC
:1005F00029F0405C5F4F6F4F7F4F40781A8EFE1797
:1006000011F081E08A8F4D8F5E8F6F8F78A383E02A
:10061000898FCE0149960E94F503A096E2E10C94E1
:10062000C915A8E1B0E0E7E1F3E00C94B9156983DE
:100630007A838B839C832D833E834F83588789E005
:10064000E82EF12CEC0EFD1ECE010196B7010E94A2
:10065000CA048E010F5E1F4FCE010596B8010E949D
:10066000CA048985823040F08989823028F0C70128
:10067000B8010E94420501C08FEF6896E6E00C9435
:10068000D515A8E1B0E0E7E4F3E00C94B91569836F
:100690007A838B839C832D833E834F83588789E0A5
:1006A000E82EF12CEC0EFD1ECE010196B7010E9442
:1006B000CA048E010F5E1F4FCE010596B8010E943D
:1006C000CA048985823040F08989823028F0C701C8
:1006D000B8010E94420501C08FEF6896E6E00C94D5
:1006E000D515A8E1B0E0E7E7F3E00C94B91569830C
:1006F0007A838B839C832D833E834F83588789E045
:10070000E82EF12CEC0EFD1ECE010196B7010E94E1
:10071000CA048E010F5E1F4FCE010596B8010E94DC
:10072000CA048985823040F08989823028F0C70167
:10073000B8010E94420501C081E06896E6E00C9491
:10074000D515ACE0B0E0E7EAF3E00C94BD156983A1
:100750007A838B839C83CE010196BE016B5F7F4FB2
:100760000E94CA048D81823061F1823050F1843060
:1007700021F48E81882351F12EC02F81388537FDD9
:1007800020C06E812F3131051CF06623F9F023C0A3
:100790008EE190E0821B930B29853A854B855C8521
:1007A00004C056954795379527958A95D2F76623C5
:1007B000B1F050954095309521953F4F4F4F5F4F89
:1007C0000EC020E030E040E050E009C02FEF3FEFE6
:1007D0004FEF5FE704C020E030E040E050E8B901AF
:1007E000CA012C96E2E00C94D915DF92EF92FF92A9
:1007F0000F931F93FC01E480F58006811781D1805F
:100800008081823048F480E090E0A0E1B0E0E82A06
:10081000F92A0A2B1B2BA5C0843009F49FC0823013
:1008200021F4EE24FF24870105C0E114F104010541
:10083000110519F4E0E0F0E096C0628173819FEF4A
:10084000623879070CF05BC022E83FEF261B370BBC
:100850002A3131052CF020E030E040E050E02AC0A1
:10086000B801A701022E04C0769567955795479564
:100870000A94D2F781E090E0A0E0B0E004C0880FD5
:10088000991FAA1FBB1F2A95D2F70197A109B10989
:100890008E219F21A023B1230097A105B10521F04E
:1008A00081E090E0A0E0B0E09A01AB01282B392B69
:1008B0004A2B5B2BDA01C9018F779070A070B07062
:1008C00080349105A105B10539F427FF09C0205CEA
:1008D0003F4F4F4F5F4F04C0215C3F4F4F4F5F4F23
:1008E000E0E0F0E02030A0E03A07A0E04A07A0E412
:1008F0005A0710F0E1E0F0E079018A0127C0603882
:10090000710564F5FB01E158FF4FD801C7018F77EE
:100910009070A070B07080349105A105B10539F4D4
:10092000E7FE0DC080E490E0A0E0B0E004C08FE3FB
:1009300090E0A0E0B0E0E80EF91E0A1F1B1F17FFB1
:1009400005C016950795F794E794319687E01695BC
:100950000795F794E7948A95D1F705C0EE24FF2414
:100960008701EFEFF0E06E2F679566276795902F70
:100970009F77D794DD24D7948E2F8695492F462BC9
:10098000582F5D29B701CA011F910F91FF90EF9079
:10099000DF900895FC01DB01408151812281622FAB
:1009A0006F7770E0221F2227221F9381892F880FE3
:1009B000822B282F30E0991F9927991F11969C931D
:1009C000119721153105A9F54115510561057105ED
:1009D00011F482E037C082E89FEF13969C938E93C8
:1009E00012979A01AB0167E0220F331F441F551F76
:1009F0006A95D1F783E08C930DC0220F331F441FFB
:100A0000551F12968D919C911397019713969C9365
:100A10008E931297203080E0380780E0480780E40A
:100A2000580758F314962D933D934D935C93179765
:100A300008952F3F310579F4411551056105710580
:100A400019F484E08C93089564FF03C081E08C93D3
:100A500012C01C9210C02F57304013963C932E9317
:100A6000129783E08C9387E0440F551F661F771F12
:100A70008A95D1F7706414964D935D936D937C9332
:100A8000179708951F93DC01FB019C91923008F4A5
:100A900047C08081823008F443C0943051F41196ED
:100AA0001C91843099F58181682F70E0611B710978
:100AB0003FC0843021F0923031F48230B9F181812D
:100AC000882389F12DC011961C9111978230F1F085
:100AD00081811817D9F412962D913C911397828138
:100AE00093818217930794F028173907BCF0149666
:100AF0008D919D910D90BC91A02D248135814681D1
:100B00005781281739074A075B0718F4112341F06A
:100B10000AC082179307A407B50740F4112319F000
:100B200061E070E005C06FEF7FEF02C060E070E051
:100B3000CB011F910895DF93CF93CDB7DEB76C97AC
:100B40000FB6F894DEBF0FBECDBF80E090E0A0E20C
:100B5000B2E4898F9A8FAB8FBC8F698D7A8D8B8D24
:100B60009C8D20E030E04AEF54E40E941702DC0143
:100B7000CB018D8B9E8BAF8BB88F6D897E898F89D2
:100B8000988D20E030E040E85FE30E947103882305
:100B90002CF481E090E09C8B8B8B3FC06D897E892B
:100BA0008F89988D20E03FEF4FE757E40E941103B3
:100BB00018164CF5698D7A8D8B8D9C8D20E030E078
:100BC00040E251E40E941702DC01CB01BC01CD01DF
:100BD0000E944100DC01CB019C8B8B8B0FC088EC09
:100BE00090E09A8B898B89899A890197F1F79A8B82
:100BF000898B8B899C8901979C8B8B8B8B899C899A
:100C0000009769F714C06D897E898F89988D0E943D
:100C10004100DC01CB019C8B8B8B8B899C89988B51
:100C20008F878F8598890197F1F7988B8F8782E25C
:100C30000E94A90681E060E80E94E31382E062E07E
:100C400041E00E944A1280E090E0A0E0B0E48B878F
:100C50009C87AD87BE876B857C858D859E8520E0D2
:100C600030E04AEF54E40E941702DC01CB018F838D
:100C70009887A987BA876F81788589859A8520E0CA
:100C800030E040E85FE30E94710388232CF481E0A8
:100C900090E09E838D833FC06F81788589859A859A
:100CA00020E03FEF4FE757E40E94110318164CF580
:100CB0006B857C858D859E8520E030E040E251E4A7
:100CC0000E941702DC01CB01BC01CD010E94410052
:100CD000DC01CB019E838D830FC088EC90E09C8368
:100CE0008B838B819C810197F1F79C838B838D8112
:100CF0009E8101979E838D838D819E81009769F7E8
:100D000014C06F81788589859A850E944100DC0135
:100D1000CB019E838D838D819E819A838983898176
:100D20009A810197F1F79A83898382E062E040E03B
:100D30000E944A128CE00E94A90681E00E94A90646
:100D40006C960FB6F894DEBF0FBECDBFCF91DF918A
:100D50000895DF93CF93CDB7DEB76D970FB6F894B4
:100D6000DEBF0FBECDBF8D8F82E060E040E00E940D
:100D70004A1282E061E040E00E944A1281E06D8DFB
:100D80000E94E31382E062E041E00E944A1280E0A8
:100D900090E0A0E0B0E4898F9A8FAB8FBC8F698D13
:100DA0007A8D8B8D9C8D20E030E04AEF54E40E94D8
:100DB0001702DC01CB018D8B9E8BAF8BB88F6D89B9
:100DC0007E898F89988D20E030E040E85FE30E94C3
:100DD000710388232CF481E090E09C8B8B8B3FC0C7
:100DE0006D897E898F89988D20E03FEF4FE757E42A
:100DF0000E94110318164CF5698D7A8D8B8D9C8D90
:100E000020E030E040E251E40E941702DC01CB0117
:100E1000BC01CD010E944100DC01CB019C8B8B8B7E
:100E20000FC088EC90E09A8B898B89899A89019709
:100E3000F1F79A8B898B8B899C8901979C8B8B8B83
:100E40008B899C89009769F714C06D897E898F8989
:100E5000988D0E944100DC01CB019C8B8B8B8B8990
:100E60009C89988B8F878F8598890197F1F7988B4C
:100E70008F8782E062E040E00E944A128D8D982FB9
:100E80009295907F81E0692F0E94E31382E062E0F7
:100E900041E00E944A1280E090E0A0E0B0E48B873D
:100EA0009C87AD87BE876B857C858D859E8520E080
:100EB00030E04AEF54E40E941702DC01CB018F833B
:100EC0009887A987BA876F81788589859A8520E078
:100ED00030E040E85FE30E94710388232CF481E056
:100EE00090E09E838D833FC06F81788589859A8548
:100EF00020E03FEF4FE757E40E94110318164CF52E
:100F00006B857C858D859E8520E030E040E251E454
:100F10000E941702DC01CB01BC01CD010E944100FF
:100F2000DC01CB019E838D830FC088EC90E09C8315
:100F30008B838B819C810197F1F79C838B838D81BF
:100F40009E8101979E838D838D819E81009769F795
:100F500014C06F81788589859A850E944100DC01E3
:100F6000CB019E838D838D819E819A838983898124
:100F70009A810197F1F79A83898382E062E040E0E9
:100F80000E944A126D960FB6F894DEBF0FBECDBF19
:100F9000CF91DF910895DF93CF93CDB7DEB76D97F3
:100FA0000FB6F894DEBF0FBECDBF8D8F82E060E03C
:100FB00041E00E944A1282E061E040E00E944A1251
:100FC00081E06D8D0E94E31382E062E041E00E94C7
:100FD0004A1280E090E0A0E0B0E4898F9A8FAB8F56
:100FE000BC8F698D7A8D8B8D9C8D20E030E04AEF2F
:100FF00054E40E941702DC01CB018D8B9E8BAF8BDA
:10100000B88F6D897E898F89988D20E030E040E827
:101010005FE30E94710388232CF481E090E09C8BB5
:101020008B8B3FC06D897E898F89988D20E03FEF43
:101030004FE757E40E94110318164CF5698D7A8D1D
:101040008B8D9C8D20E030E040E251E40E9417023D
:10105000DC01CB01BC01CD010E944100DC01CB01D0
:101060009C8B8B8B0FC088EC90E09A8B898B898945
:101070009A890197F1F79A8B898B8B899C890197C3
:101080009C8B8B8B8B899C89009769F714C06D8929
:101090007E898F89988D0E944100DC01CB019C8B59
:1010A0008B8B8B899C89988B8F878F8598890197EB
:1010B000F1F7988B8F8782E062E040E00E944A124D
:1010C0008D8D982F9295907F81E0692F0E94E31378
:1010D00082E062E041E00E944A1280E090E0A0E0FD
:1010E000B0E48B879C87AD87BE876B857C858D85BB
:1010F0009E8520E030E04AEF54E40E941702DC01B4
:10110000CB018F839887A987BA876F817885898576
:101110009A8520E030E040E85FE30E947103882375
:101120002CF481E090E09E838D833FC06F817885B1
:1011300089859A8520E03FEF4FE757E40E9411032D
:1011400018164CF56B857C858D859E8520E030E0FA
:1011500040E251E40E941702DC01CB01BC01CD0149
:101160000E944100DC01CB019E838D830FC088EC7F
:1011700090E09C838B838B819C810197F1F79C830A
:101180008B838D819E8101979E838D838D819E812E
:10119000009769F714C06F81788589859A850E94C8
:1011A0004100DC01CB019E838D838D819E819A83DA
:1011B000898389819A810197F1F79A83898382E0F3
:1011C00062E040E00E944A126D960FB6F894DEBFCE
:1011D0000FBECDBFCF91DF910895DF93CF9300D0A5
:1011E00000D000D0CDB7DEB79E838D8319821A82DE
:1011F0001B821C8215C029813A818D819E81FC0150
:10120000E20FF31F80810E94CB0789819A81AB8115
:10121000BC810196A11DB11D89839A83AB83BC83D8
:1012200029813A818D819E81FC01E20FF31F80812B
:10123000882309F726960FB6F894DEBF0FBECDBF00
:10124000CF91DF910895DF93CF9300D00F92CDB768
:10125000DEB78A836B838A81882319F48B81898323
:1012600006C08A81813019F48B81805C89838981F1
:1012700080580E94A9060F900F900F90CF91DF9198
:101280000895DF93CF93CDB7DEB781E00E94A90622
:10129000CF91DF910895DF93CF93CDB7DEB7279736
:1012A0000FB6F894DEBF0FBECDBF9C838B836D83DA
:1012B0004E832F831A828D81882F90E0880F991F8B
:1012C000880F991F880F991F89838981805C0E94EC
:1012D000A9061A820EC08A81282F30E08B819C815A
:1012E000FC01E20FF31F80810E94CB078A818F5F90
:1012F0008A838A81883078F38E816F810E942309E6
:101300008D810E94CB0727960FB6F894DEBF0FBEE3
:10131000CDBFCF91DF910895DF93CF93CDB7DEB7E7
:10132000A1970FB6F894DEBF0FBECDBF9D8F8C8FF7
:101330004E8F5F8F68A379A31F828E8D9F8DA8A18A
:10134000B9A189839A83AB83BC838E8D9F8DA8A11D
:10135000B9A10097A105B10521F480E3888719861A
:101360007CC08E8D9F8DA8A1B9A1BB2344F58DE2D1
:101370000E94CB078E8D9F8DA8A1B9A1B095A09595
:10138000909581959F4FAF4FBF4F8E8F9F8FA8A392
:10139000B9A315C08F818F5F8F8389819A81AB81BB
:1013A000BC812AE030E040E050E0BC01CD010E9469
:1013B0007015DA01C90189839A83AB83BC83898163
:1013C0009A81AB81BC810097A105B10519F71D82F7
:1013D00037C08E8D9F8DA8A1B9A12AE030E040E0F2
:1013E00050E0BC01CD010E949215DC01CB018E833F
:1013F0008E8D9F8DA8A1B9A12AE030E040E050E099
:10140000BC01CD010E949215DA01C9018E8F9F8F18
:10141000A8A3B9A38F81282F30E08D81882F90E079
:1014200080959095280F391F8E81805D482FCE01C1
:101430000896FC01E20FF31F40838D818F5F8D833F
:101440009D818F81981728F28F81282F30E0CE015F
:101450000896FC01E20FF31F1082CE0108960E944D
:10146000ED08A1960FB6F894DEBF0FBECDBFCF91A9
:10147000DF9108950F931F93DF93CF93CDB7DEB71E
:1014800060970FB6F894DEBF0FBECDBF6D877E8725
:101490008F87988B1A828D859E85AF85B889009736
:1014A000A105B10521F480E30E94CB0767C08D85BB
:1014B0009E85AF85B889BB230CF041C08DE20E94A8
:1014C000CB078D859E85AF85B889B095A095909501
:1014D00081959F4FAF4FBF4F8D879E87AF87B88B4A
:1014E0002EC08A81082F10E08D859E85AF85B88932
:1014F0002AE030E040E050E0BC01CD010E949215AE
:10150000DC01CB01282F205DCE010396FC01E00F0A
:10151000F11F20838D859E85AF85B8892AE030E054
:1015200040E050E0BC01CD010E949215DA01C901F2
:101530008D879E87AF87B88B8A818F5F8A838D85E1
:101540009E85AF85B8890097A105B10551F68A81BE
:101550008150898310C08981282F332727FD30953A
:10156000CE010396FC01E20FF31F80810E94CB079E
:10157000898181508983898188236CF760960FB6B1
:10158000F894DEBF0FBECDBFCF91DF911F910F91B9
:101590000895DF93CF9300D0CDB7DEB789836A83F8
:1015A0008981882329F48A8180680E94A90607C05E
:1015B0008981813021F48A81806C0E94A9060F9074
:1015C0000F90CF91DF9108950F931F93DF93CF93E7
:1015D000CDB7DEB760970FB6F894DEBF0FBECDBFB4
:1015E0006D877E878F87988B1A828D859E85AF85C4
:1015F000B8890097A105B10521F480E30E94CB07CB
:1016000067C08D859E85AF85B889BB230CF041C02E
:101610008DE20E94CB078D859E85AF85B889B095F8
:10162000A095909581959F4FAF4FBF4F8D879E8717
:10163000AF87B88B2EC08A81082F10E08D859E85DC
:10164000AF85B8892AE030E040E050E0BC01CD0130
:101650000E949215DC01CB01282F205DCE0103965C
:10166000FC01E00FF11F20838D859E85AF85B88931
:101670002AE030E040E050E0BC01CD010E9492152C
:10168000DA01C9018D879E87AF87B88B8A818F5F0A
:101690008A838D859E85AF85B8890097A105B105A0
:1016A00051F68A818150898310C08981282F332780
:1016B00027FD3095CE010396FC01E20FF31F8081D8
:1016C0000E94CB07898181508983898188236CF7A7
:1016D00060960FB6F894DEBF0FBECDBFCF91DF91FD
:1016E0001F910F910895DF93CF93CDB7DEB7E897A1
:1016F0000FB6F894DEBF0FBECDBF84E060E040E0DF
:101700000E944A1284E060E040E00E944A1284E0B5
:1017100061E041E00E944A1284E062E041E00E9400
:101720004A1284E063E041E00E944A1280E090E0C7
:10173000A0E0B0E48DAB9EABAFABB8AF6DA97EA916
:101740008FA998AD20E030E04AEF54E40E941702E0
:10175000DC01CB0189AB9AABABABBCAB69A97AA975
:101760008BA99CA920E030E040E85FE30E94710370
:1017700088232CF481E090E098AB8FA73FC069A943
:101780007AA98BA99CA920E03FEF4FE757E40E947C
:10179000110318164CF56DA97EA98FA998AD20E00C
:1017A00030E040E251E40E941702DC01CB01BC01B1
:1017B000CD010E944100DC01CB0198AB8FA70FC087
:1017C00088EC90E09EA78DA78DA59EA50197F1F7C7
:1017D0009EA78DA78FA598A9019798AB8FA78FA5D6
:1017E00098A9009769F714C069A97AA98BA99CA93F
:1017F0000E944100DC01CB0198AB8FA78FA598A96F
:101800009CA78BA78BA59CA50197F1F79CA78BA7FD
:1018100084E060E041E00E944A1284E061E040E040
:101820000E944A1284E062E041E00E944A1284E091
:1018300063E041E00E944A1280E090E0A0E0B0E462
:101840008FA398A7A9A7BAA76FA178A589A59AA5DC
:1018500020E030E04AEF54E40E941702DC01CB01A3
:101860008BA39CA3ADA3BEA36BA17CA18DA19EA1C4
:1018700020E030E040E85FE30E94710388232CF40D
:1018800081E090E09AA389A33FC06BA17CA18DA1C8
:101890009EA120E03FEF4FE757E40E941103181686
:1018A0004CF56FA178A589A59AA520E030E040E22B
:1018B00051E40E941702DC01CB01BC01CD010E9462
:1018C0004100DC01CB019AA389A30FC088EC90E012
:1018D00098A38F8F8F8D98A10197F1F798A38F8F81
:1018E00089A19AA101979AA389A389A19AA1009796
:1018F00069F714C06BA17CA18DA19EA10E9441003B
:10190000DC01CB019AA389A389A19AA19E8F8D8F17
:101910008D8D9E8D0197F1F79E8F8D8F84E060E015
:1019200041E00E944A1284E061E041E00E944A12D4
:1019300084E062E040E00E944A1284E063E041E01B
:101940000E944A1280E090E0A0E0B0E4898F9A8F74
:10195000AB8FBC8F698D7A8D8B8D9C8D20E030E0B4
:101960004AEF54E40E941702DC01CB018D8B9E8B61
:10197000AF8BB88F6D897E898F89988D20E030E09C
:1019800040E85FE30E94710388232CF481E090E03B
:101990009C8B8B8B3FC06D897E898F89988D20E0D1
:1019A0003FEF4FE757E40E94110318164CF5698D7D
:1019B0007A8D8B8D9C8D20E030E040E251E40E94D6
:1019C0001702DC01CB01BC01CD010E944100DC010A
:1019D000CB019C8B8B8B0FC088EC90E09A8B898B12
:1019E00089899A890197F1F79A8B898B8B899C89D0
:1019F00001979C8B8B8B8B899C89009769F714C00E
:101A00006D897E898F89988D0E944100DC01CB0110
:101A10009C8B8B8B8B899C89988B8F878F859889E2
:101A20000197F1F7988B8F8784E060E041E00E9496
:101A30004A1284E061E041E00E944A1284E062E0E0
:101A400041E00E944A1284E063E040E00E944A12B2
:101A500080E090E0A0E0B0E48B879C87AD87BE87F4
:101A60006B857C858D859E8520E030E04AEF54E4CF
:101A70000E941702DC01CB018F839887A987BA8760
:101A80006F81788589859A8520E030E040E85FE3C2
:101A90000E94710388232CF481E090E09E838D8363
:101AA0003FC06F81788589859A8520E03FEF4FE7B9
:101AB00057E40E94110318164CF56B857C858D85C3
:101AC0009E8520E030E040E251E40E941702DC01F4
:101AD000CB01BC01CD010E944100DC01CB019E8302
:101AE0008D830FC088EC90E09C838B838B819C81DD
:101AF0000197F1F79C838B838D819E8101979E8353
:101B00008D838D819E81009769F714C06F817885E0
:101B100089859A850E944100DC01CB019E838D83DB
:101B20008D819E819A83898389819A810197F1F7BA
:101B30009A838983E8960FB6F894DEBF0FBECDBFB7
:101B4000CF91DF910895DF93CF93CDB7DEB7E897BC
:101B50000FB6F894DEBF0FBECDBF84E063E040E077
:101B60000E944A1284E062E041E00E944A1284E04E
:101B700061E041E00E944A1284E060E041E00E949E
:101B80004A1280E090E0A0E0B0E48DAB9EABAFAB3A
:101B9000B8AF6DA97EA98FA998AD20E030E04AEFDB
:101BA00054E40E941702DC01CB0189AB9AABABABCA
:101BB000BCAB69A97AA98BA99CA920E030E040E8D8
:101BC0005FE30E94710388232CF481E090E098ABDE
:101BD0008FA73FC069A97AA98BA99CA920E03FEFF4
:101BE0004FE757E40E94110318164CF56DA97EA922
:101BF0008FA998AD20E030E040E251E40E94170246
:101C0000DC01CB01BC01CD010E944100DC01CB0114
:101C100098AB8FA70FC088EC90E09EA78DA78DA5ED
:101C20009EA50197F1F79EA78DA78FA598A901976B
:101C300098AB8FA78FA598A9009769F714C069A9D9
:101C40007AA98BA99CA90E944100DC01CB0198AB29
:101C50008FA78FA598A99CA78BA78BA59CA501975B
:101C6000F1F79CA78BA784E063E041E00E944A1251
:101C700084E062E040E00E944A1284E061E041E0DA
:101C80000E944A1284E060E041E00E944A1280E033
:101C900090E0A0E0B0E48FA398A7A9A7BAA76FA18E
:101CA00078A589A59AA520E030E04AEF54E40E9487
:101CB0001702DC01CB018BA39CA3ADA3BEA36BA138
:101CC0007CA18DA19EA120E030E040E85FE30E946E
:101CD000710388232CF481E090E09AA389A33FC08C
:101CE0006BA17CA18DA19EA120E03FEF4FE757E4BF
:101CF0000E94110318164CF56FA178A589A59AA525
:101D000020E030E040E251E40E941702DC01CB0108
:101D1000BC01CD010E944100DC01CB019AA389A343
:101D20000FC088EC90E098A38F8F8F8D98A10197BA
:101D3000F1F798A38F8F89A19AA101979AA389A3FC
:101D400089A19AA1009769F714C06BA17CA18DA10C
:101D50009EA10E944100DC01CB019AA389A389A125
:101D60009AA19E8F8D8F8D8D9E8D0197F1F79E8FFD
:101D70008D8F84E063E041E00E944A1284E062E0DB
:101D800041E00E944A1284E061E040E00E944A1271
:101D900084E060E041E00E944A1280E090E0A0E030
:101DA000B0E4898F9A8FAB8FBC8F698D7A8D8B8DC4
:101DB0009C8D20E030E04AEF54E40E941702DC01E1
:101DC000CB018D8B9E8BAF8BB88F6D897E898F8970
:101DD000988D20E030E040E85FE30E9471038823A3
:101DE0002CF481E090E09C8B8B8B3FC06D897E89C9
:101DF0008F89988D20E03FEF4FE757E40E94110351
:101E000018164CF5698D7A8D8B8D9C8D20E030E015
:101E100040E251E40E941702DC01CB01BC01CD017C
:101E20000E944100DC01CB019C8B8B8B0FC088ECA6
:101E300090E09A8B898B89899A890197F1F79A8B1F
:101E4000898B8B899C8901979C8B8B8B8B899C8937
:101E5000009769F714C06D897E898F89988D0E94DB
:101E60004100DC01CB019C8B8B8B8B899C89988BEF
:101E70008F878F8598890197F1F7988B8F8784E0FA
:101E800063E041E00E944A1284E062E041E00E9487
:101E90004A1284E061E041E00E944A1284E060E07E
:101EA00040E00E944A1280E090E0A0E0B0E48B871E
:101EB0009C87AD87BE876B857C858D859E8520E060
:101EC00030E04AEF54E40E941702DC01CB018F831B
:101ED0009887A987BA876F81788589859A8520E058
:101EE00030E040E85FE30E94710388232CF481E036
:101EF00090E09E838D833FC06F81788589859A8528
:101F000020E03FEF4FE757E40E94110318164CF50D
:101F10006B857C858D859E8520E030E040E251E434
:101F20000E941702DC01CB01BC01CD010E944100DF
:101F3000DC01CB019E838D830FC088EC90E09C83F5
:101F40008B838B819C810197F1F79C838B838D819F
:101F50009E8101979E838D838D819E81009769F775
:101F600014C06F81788589859A850E944100DC01C3
:101F7000CB019E838D838D819E819A838983898104
:101F80009A810197F1F79A838983E8960FB6F894BE
:101F9000DEBF0FBECDBFCF91DF910895DF93CF930A
:101FA000CDB7DEB783E061E040E00E944A1283E0F3
:101FB00060E041E00E944A12CF91DF910895DF93E3
:101FC000CF93CDB7DEB783E061E041E00E944A12D3
:101FD00083E060E040E00E944A12CF91DF910895D3
:101FE000DF93CF93CDB7DEB783E061E040E00E949E
:101FF0004A1283E060E040E00E944A12CF91DF91F4
:102000000895DF93CF93CDB7DEB7A2970FB6F894BC
:10201000DEBF0FBECDBF8FEF8C8381E08D831B822F
:102020001A8282E08E8383E08F8384E0888785E054
:10203000898782E08A8783E08B8784E08C8785E0CC
:102040008D87CE010E969F8F8E8FE8E6F0E0F9A384
:10205000E8A3F0E1FAA3E8A1F9A1008088A199A181
:10206000019699A388A3EE8DFF8D00828E8D9F8DA2
:1020700001969F8F8E8F9AA191509AA3EAA1EE2389
:1020800051F719821B826BC08B81282F30E0CE0163
:102090000696FC01E20FF31F908183E0692F40E078
:1020A0000E944A121A8243C08A81282F30E0CE0152
:1020B0000A96FC01E20FF31F90819E012B5F3F4FB8
:1020C00084E0692FA9010E9454138D81882361F552
:1020D0008A81282F30E08B81482F50E0220F331F58
:1020E000220F331FCE010196820F931F840F951F7D
:1020F000FC013D9680818C8311C08A81282F30E0BD
:10210000CE010A96FC01E20FF31F90819E012B5F26
:102110003F4F84E0692FA9010E9454138D818823C9
:1021200061F381E0898307C08A818F5F8A838A8116
:10213000843008F4B9CF8B81282F30E0CE01069689
:10214000FC01E20FF31F908183E0692F41E00E94C0
:102150004A128981882339F48B818F5F8B838B812D
:10216000843008F491CF8C81A2960FB6F894DEBF2C
:102170000FBECDBFCF91DF910895DF93CF93CDB741
:10218000DEB7A7E2B0E0E7E2F0E080818F778C93E2
:10219000A7E2B0E0E7E2F0E0808180648C93A7E200
:1021A000B0E0E7E2F0E080818F7D8C93A6E2B0E0C2
:1021B000E6E2F0E0808181608C93A6E2B0E0E6E2A6
:1021C000F0E080818D7F8C93A6E2B0E0E6E2F0E063
:1021D000808184608C93A6E2B0E0E6E2F0E080814A
:1021E00080688C93CF91DF910895DF93CF9300D0D7
:1021F000CDB7DEB78983A7E2B0E0E7E2F0E0808107
:1022000080768C93A7E2B0E0E7E2F0E090818981EC
:10221000892B8C93A6E2B0E0E6E2F0E08081806456
:102220008C93E6E2F0E08081A6E2B0E0E6E2F0E046
:10223000808180618C93E4E2F0E0808191810F9055
:102240000F90CF91DF910895DF93CF93CDB7DEB795
:10225000EAE3F0E08FEF8083E7E3F0E08FE2808352
:10226000E4E3F0E08FEF8083E1E3F0E08FEF808341
:10227000EBE3F0E08FEF8083E8E3F0E01082E5E34A
:10228000F0E01082E2E3F0E01082CF91DF91089558
:10229000DF93CF93CDB7DEB727970FB6F894DEBFA5
:1022A0000FBECDBF89836A834B838B81882309F05E
:1022B00075C08981282F30E03F832E838E819F81D6
:1022C0008230910561F12E813F812330310534F454
:1022D0008E819F818130910569F0D3C02E813F812D
:1022E0002330310589F18E819F818430910509F475
:1022F00040C0C7C0AAE3B0E0EAE3F0E08081482F25
:102300008A81282F30E081E090E0022E02C0880F01
:10231000991F0A94E2F7809584238C93B2C0A7E3B7
:10232000B0E0E7E3F0E08081482F8A81282F30E099
:1023300081E090E0022E02C0880F991F0A94E2F714
:10234000809584238C939DC0A4E3B0E0E4E3F0E0A7
:102350008081482F8A81282F30E081E090E0022E92
:1023600002C0880F991F0A94E2F7809584238C930A
:1023700088C0A1E3B0E0E1E3F0E08081482F8A81EA
:10238000282F30E081E090E0022E02C0880F991FD4
:102390000A94E2F7809584238C9373C08B818130FB
:1023A00009F06FC08981282F30E03D832C838C8118
:1023B0009D818230910551F12C813D812330310581
:1023C00034F48C819D818130910561F05AC02C815B
:1023D0003D812330310571F18C819D8184309105DF
:1023E000E9F14FC0AAE3B0E0EAE3F0E08081482FD2
:1023F0008A81282F30E081E090E0022E02C0880F11
:10240000991F0A94E2F7842B8C933BC0A7E3B0E0BA
:10241000E7E3F0E08081482F8A81282F30E081E0D7
:1024200090E0022E02C0880F991F0A94E2F7842BD5
:102430008C9327C0A4E3B0E0E4E3F0E08081482F70
:102440008A81282F30E081E090E0022E02C0880FC0
:10245000991F0A94E2F7842B8C9313C0A1E3B0E098
:10246000E1E3F0E08081482F8A81282F30E081E08D
:1024700090E0022E02C0880F991F0A94E2F7842B85
:102480008C9327960FB6F894DEBF0FBECDBFCF91C9
:10249000DF910895DF93CF93CDB7DEB728970FB6BE
:1024A000F894DEBF0FBECDBF8A836B834C83198245
:1024B0008B81883018F081E08983ECC08C8188237F
:1024C00009F075C08A81282F30E038872F838F81EB
:1024D00098858230910561F12F813885233031054F
:1024E00034F48F8198858130910569F0D3C02F81B4
:1024F00038852330310589F18F81988584309105A5
:1025000009F440C0C7C0ABE3B0E0EBE3F0E080818A
:10251000482F8B81282F30E081E090E0022E02C00E
:10252000880F991F0A94E2F7809584238C93B2C098
:10253000A8E3B0E0E8E3F0E08081482F8B81282F0A
:1025400030E081E090E0022E02C0880F991F0A94CB
:10255000E2F7809584238C939DC0A5E3B0E0E5E38A
:10256000F0E08081482F8B81282F30E081E090E0DF
:10257000022E02C0880F991F0A94E2F780958423E7
:102580008C9388C0A2E3B0E0E2E3F0E08081482FC2
:102590008B81282F30E081E090E0022E02C0880F6E
:1025A000991F0A94E2F7809584238C9373C08C81E1
:1025B000813009F06FC08A81282F30E03E832D835F
:1025C0008D819E818230910551F12D813E81233094
:1025D000310534F48D819E818130910561F05AC0BE
:1025E0002D813E812330310571F18D819E818430B2
:1025F0009105E9F14FC0ABE3B0E0EBE3F0E080819F
:10260000482F8B81282F30E081E090E0022E02C01D
:10261000880F991F0A94E2F7842B8C933BC0A8E3A0
:10262000B0E0E8E3F0E08081482F8B81282F30E094
:1026300081E090E0022E02C0880F991F0A94E2F711
:10264000842B8C9327C0A5E3B0E0E5E3F0E0808124
:10265000482F8B81282F30E081E090E0022E02C0CD
:10266000880F991F0A94E2F7842B8C9313C0A2E37E
:10267000B0E0E2E3F0E08081482F8B81282F30E04A
:1026800081E090E0022E02C0880F991F0A94E2F7C1
:10269000842B8C93898128960FB6F894DEBF0FBEE9
:1026A000CDBFCF91DF910895DF93CF93CDB7DEB744
:1026B00027970FB6F894DEBF0FBECDBF8A836B831A
:1026C0005D834C8319828B81883018F081E0898387
:1026D00070C08A81282F30E03F832E834E815F8136
:1026E0004230510559F18E819F818330910534F438
:1026F0002E813F812130310569F05BC04E815F81C1
:102700004330510579F18E819F818430910509F420
:102710003DC04FC0E9E3F0E08081282F30E08B819D
:10272000882F90E0A90102C0559547958A95E2F758
:10273000CA018170EC81FD8180833BC0E6E3F0E05B
:102740008081282F30E08B81882F90E0A90102C082
:10275000559547958A95E2F7CA018170EC81FD8114
:10276000808327C0E3E3F0E08081282F30E08B8175
:10277000882F90E0A90102C0559547958A95E2F708
:10278000CA018170EC81FD81808313C0E0E3F0E039
:102790008081282F30E08B81882F90E0A90102C032
:1027A000559547958A95E2F7CA018170EC81FD81C4
:1027B0008083898127960FB6F894DEBF0FBECDBF08
:1027C000CF91DF910895DF93CF9300D000D00F9287
:1027D000CDB7DEB78A836B8319828A81883018F07F
:1027E00081E0898336C08A81282F30E03D832C83A5
:1027F0008C819D8182309105D9F02C813D812330DF
:10280000310534F48C819D818130910561F01FC0C8
:102810002C813D812330310581F08C819D81843074
:10282000910581F014C0EBE3F0E08B81808311C04F
:10283000E8E3F0E08B8180830CC0E5E3F0E08B817E
:10284000808307C0E2E3F0E08B81808302C081E0F7
:10285000898389810F900F900F900F900F90CF91E7
:10286000DF910895DF93CF9300D000D000D0CDB793
:10287000DEB78A837C836B8319828A81883018F063
:1028800081E089833EC08A81282F30E03E832D83FA
:102890008D819E8182309105E9F02D813E8123302A
:1028A000310534F48D819E818130910561F027C01E
:1028B0002D813E8123303105A1F08D819E818430B0
:1028C0009105B1F01CC0E9E3F0E08081EB81FC816F
:1028D000808317C0E6E3F0E08081EB81FC81808398
:1028E00010C0E3E3F0E08081EB81FC81808309C0CC
:1028F000E0E3F0E08081EB81FC81808302C081E035
:102900008983898126960FB6F894DEBF0FBECDBFAE
:10291000CF91DF910895DF93CF9300D000D00F9235
:10292000CDB7DEB78A836B8319828B81883010F034
:1029300081E089838A81282F30E03D832C838C813C
:102940009D818230910551F12C813D8123303105EB
:1029500034F48C819D818130910561F05BC02C81C4
:102960003D812330310571F18C819D818430910549
:10297000E9F150C0ABE3B0E0EBE3F0E08081482F39
:102980008B81282F30E081E090E0022E02C0880F7A
:10299000991F0A94E2F784278C933EC0A8E3B0E025
:1029A000E8E3F0E08081482F8B81282F30E081E040
:1029B00090E0022E02C0880F991F0A94E2F7842744
:1029C0008C932AC0A5E3B0E0E5E3F0E08081482FD6
:1029D0008B81282F30E081E090E0022E02C0880F2A
:1029E000991F0A94E2F784278C9316C0A2E3B0E003
:1029F000E2E3F0E08081482F8B81282F30E081E0F6
:102A000090E0022E02C0880F991F0A94E2F78427F3
:102A10008C9302C081E0898389810F900F900F9081
:102A20000F900F90CF91DF910895DF93CF93CDB7A3
:102A3000DEB7ADE2B0E0EDE2F0E0808180648C933F
:102A4000ADE2B0E0EDE2F0E0808180628C93ADE237
:102A5000B0E0EDE2F0E080818F7E8C93ADE2B0E0FB
:102A6000EDE2F0E08081877F8C93ADE2B0E0EDE2B3
:102A7000F0E0808184608C93CF91DF910895DF93A3
:102A8000CF9300D0CDB7DEB78983EFE2F0E0898144
:102A90008083EEE2F0E08081EFE2F0E080810F9051
:102AA0000F90CF91DF910895DF93CF9300D00F92D5
:102AB000CDB7DEB70E9424110E949B050E94BD1075
:102AC0000E94151580E58B838B810E943F158A83B8
:102AD0008A818035C9F782E06FEF0E94E313F4CF5B
:102AE000A1E21A2EAA1BBB1BFD010DC0AA1FBB1F12
:102AF000EE1FFF1FA217B307E407F50720F0A21B84
:102B0000B30BE40BF50B661F771F881F991F1A94F0
:102B100069F760957095809590959B01AC01BD011A
:102B2000CF01089597FB092E05260ED057FD04D03E
:102B3000D7DF0AD0001C38F4509540953095219588
:102B40003F4F4F4F5F4F0895F6F7909580957095E2
:102B500061957F4F8F4F9F4F08952F923F924F92D5
:102B60005F926F927F928F929F92AF92BF92CF921D
:102B7000DF92EF92FF920F931F93CF93DF93CDB726
:102B8000DEB7CA1BDB0B0FB6F894DEBF0FBECDBF9E
:102B900009942A88398848885F846E847D848C846F
:102BA0009B84AA84B984C884DF80EE80FD800C8178
:102BB0001B81AA81B981CE0FD11D0FB6F894DEBF5B
:0C2BC0000FBECDBFED010895F894FFCFCB
:102BCC0000000000000000003738392F343536582B
:082BDC003132332D43303D2B53
:00000001FF
